:100000000C94D8010C94F5010C94C8080C94F501DB
:100010000C94F5010C94F5010C94F5010C94F50188
:100020000C94F5010C94F5010C94350D0C94F5012C
:100030000C94F5010C94F5010C94F5010C94F50168
:100040000C946D090C94F5010C94F5010C94F501D8
:100050000C94F5010C94A1080C94F5010C94F50195
:100060000C94F5010C94F5010C94F5010C94F50138
:1000700014152425040505053535151525253435B4
:10008000686972735A5B78947C1C467D742EBC8FB1
:100090008E751EA4B4B54779A5952C861F2F0E0F1B
:1000A0004A4A70704646BCBC848478784E4E7C7C4C
:1000B00074747A7B86864242B4B42E2E8E8EFEFFF6
:1000C000FEFFFEBDFE87FE2DFE1D14152425040532
:1000D00005053535151525253435686972735A5B64
:1000E00078947C1C467D742EBC8F8E751EA4B4B58E
:1000F0004779A5952C861F2F0E0FBABBA8A99899F2
:100100002A2B1A1B88899A9BA0A1AAAB8283A2A33F
:10011000B2B392932E2E90913AB0B8B9FEBDFE873D
:10012000FE2DFE1D14152425040505053535151570
:1001300025253435FFFF7273686978797C7D4647E1
:100140007475BCBD8E8FA4A586871E1F9495B4B50B
:100150002E2F0E0F4A4A70704646BCBC84847878B5
:100160004E4E7C7C74747A7B86864242B4B42E2ECA
:100170008E8EFFFF5A5BFEBDFE87FE2DFE1D141501
:100180002425040505053535151525253435FFFFCE
:100190007273686978797C7D46477475BCBD8E8FB3
:1001A000A4A586871E1F9495B4B52E2F0E0FBABB3B
:1001B000A8A998992A2B1A1B88899A9BA0A1AAAB57
:1001C0007A7BA2A3B2B392932E2E9091FFFF5A5B3B
:1001D000FEBDFE87FE2DFE1DFEE9FFC0C1C2C3ECC1
:1001E000FFEAC4C5C6E86AFFFFC8C9FFCA584AFF8C
:1001F000FFFF40605262CBFFFF4C7E5E507042FFBB
:10020000FF48766C5C6E4EFFFFBE44645666CCFFC2
:10021000FFFF8C9E54CDCEFFFFB6ACAE9CCFD0FF7F
:10022000FF843E96D1A6D2FFFFFFD3FFD4D5FFFFB8
:10023000FE0C26D6FFD7FFFFFFFFFFFFFFFF06FFE5
:10024000FFD8FFD9DAFFFFFFDBDCDDDEDFE0E1FE18
:10025000EBE2E3E4E5E6E7FFFFFFFFC70024001D54
:10026000001B00220021002A002B002D0029007510
:10027000006C006B00690072007A0074007D0070F1
:100280000400001000080201000208041000000130
:10029000001E01520036013D003D0052003E014665
:1002A000004601450045027101550270011E0154CE
:1002B000013E015B014C0054004C005B0055007A8C
:1002C0000136007D00140114000E010E0011011111
:1002D00000760176026C036C0083000A0003000BB9
:1002E0000004000C00050006027202750274026B25
:1002F000004E014E001E011E00360136003D013D3C
:10030000003E013E0046014600450145004E014EBB
:1003100000540154005B015B004C014C005201523F
:10032000005D015D02710371000D010D000E010EF3
:100330000014011400760176026C036C0083000A3D
:100340000003000B0004000C00050006007200759D
:100350000074006B01550155C015CF29D0CDCE16C4
:1003600025241B1A121C1D26C12C2B2122232D2EC5
:10037000C33C33322A3435C2C544423A313B43C4CC
:10038000D8C7C949414B4DC6D1CCCB594ACAC85D23
:10039000D2D3D4D5D6D75A66FFFFFFFFFFFFFFFFAA
:1003A000FFFFFFFFFFFFFFFFFFFFFFFFFFFFFFFF5D
:1003B00011241FBECFEFD4E0DEBFCDBF21E0A0E10E
:1003C000B1E001C01D92A539B207E1F711E0A0E04C
:1003D000B1E0E6E6FDE102C005900D92A031B10763
:1003E000D9F70E947B0A0C94B10E0C9400008F9AEE
:1003F00080918E01806880938E0110928D01109201
:100400008501089587B1876087B986B1887F86B9ED
:1004100087E080937D0185B1877080937C0108958A
:1004200090917B019F5F977020917A012917E1F3EA
:10043000E0917B01F0E0EE58FE4F808390937B01CA
:10044000559A0895CF93C82F8A3019F48DE00E94F1
:1004500010028C2F0E94100290E080E0CF9108954E
:10046000CF93C82F82958F708A3060F0895A0E948E
:1004700010028C2F8F708A3038F0895A0E94100237
:10048000CF910895805DF3CF805DF8CF21E030E01B
:10049000082E01C0220F0A94EAF790917D01922361
:1004A00089F0422F409587FF07C086B1842386B923
:1004B00087B1282B27B9089596B1292B26B987B182
:1004C000842387B90895909171019F5F93709093F1
:1004D00071019091710190917001E0917101F0E0D2
:1004E000E459FE4F80830895DC01EC91EF70E150F8
:1004F000EA30F8F4F0E0E158FD4F0C94740E8902F4
:100500009102990295029702930299028D028B0241
:100510008F0280E0089581E0089582E0089583E0ED
:10052000089584E0089585E0089586E0089587E0C1
:10053000089589E008959091580180915701981786
:10054000D1F3E0915701EF5FE770E0935701F0E0DE
:10055000E15BFE4F808108958FB7F894109262019D
:100560001092610110925801109257018FBF0895A7
:1005700080914C0180FF03C08A9A92980895929AC4
:100580008A98089580914D01869580934D018091C0
:100590004E018F5F80934E01829B0AC080914D0176
:1005A000806880934D0180914C018F5F80934C0156
:1005B000089583E08093630180914D0180FD0DC01B
:1005C0008A9A929880914D01869580934D018091F1
:1005D0004E018F5F80934E01089580914C018F5F93
:1005E00080934C01929A8A98EDCF10924E0110920E
:1005F0004C01E0916101F0E03196E770FF27E75A86
:10060000FE4F808180934D010895E0915801EF5F86
:10061000E770E09358018091570180914D01F0E01F
:10062000E15BFE4F8083089589B78E7F89BF08956F
:1006300098B7916098BF12BE880F81BF89B781605B
:1006400089BF089581E080936301809164018130C6
:1006500019F0823039F0089584E20E9418038A9AD2
:10066000929808958BB78F778BBF8B9A939884E677
:100670000E9418030895CF93909162019F5F977035
:10068000209161012917E1F3E92FF0E0E75AFE4FCD
:10069000808390936201CFB7F894809163018111B8
:1006A00002C00E942203CFBFCF910895CF938091C3
:1006B00067018823E1F0C0916501C1FF03C080EEAE
:1006C0000E943B0380EF0E943B03809166010E94E1
:1006D0003B03C0FD0EC0C0916B01C0FF03C082E1AF
:1006E0000E943B0389E5C1FD08C010926701CF91CC
:1006F000089580EF0E943B0382E10E943B03F5CF07
:100700000F931F93CF93DF93662399F0142FC62F77
:10071000D82F80916701411111C08823D1F08091B9
:10072000660186130DC0809165018D1309C00E947A
:100730005603DF91CF911F910F910895882349F0BF
:10074000809166018C1303C0809165018D130E9416
:10075000560380916701811123C0112309F1009193
:100760006B01902F93708D2F8170992339F1811136
:1007700017C000FF06C080EF0E943B0382E10E9489
:100780003B0301FF06C080EF0E943B0389E50E9406
:100790003B0381E080936701C0936601D0936501BC
:1007A000D1FF03C080EE0E943B03113019F080EFAF
:1007B0000E943B038C2F0E943B03BBCF882381F315
:1007C00082E1E5CF8BB78F778BBF8AB780688ABF0E
:1007D00085B7837F886085BF8BB780688BBF08959E
:1007E00093B7926093BF93B7986093BF809364016F
:1007F0000E94AC02939A8B98929A8A981092630105
:100800000E94E2030895909162018091610198171E
:1008100019F00E9422030895109263010E941403AC
:100820000E94E20308958BB78F778BBF8AB78068E9
:100830008ABF85B78C6085BF8BB780688BBF0895F2
:100840000E9414030E94130485E180936301929A2D
:100850008A980895CF93C0914701C82BC093470150
:100860008DEE0E943B038C2F0E943B03CF91089595
:10087000CF93C0914701C1FF0BC0CD7FC09347010B
:100880008DEE0E943B038C2F0E943B03CF91089575
:1008900082E00E942A04FACFCF93DF93C82FD62F8D
:1008A00080914501882319F08C2F0E943002C031BD
:1008B00089F0C03239F0C11112C081E8DD2329F07E
:1008C00081E003C082E8D11182E00E944602DF91FC
:1008D000CF91089580E8DD23C1F380E0F6CF81E079
:1008E000D11101C080E0C82BC8BB969A9698EFCF73
:1008F000CF93C0E88C2F8195880F60E08E5F0E94B7
:100900004C04C150B9F78091470182708093470130
:1009100010924601CF9108950F931F93CF93DF93C9
:10092000182FC62FD42F80914401882319F180916C
:100930004301623709F482C06C3009F45BC06A3548
:1009400009F45CC0683609F459C0681302C0D111BB
:1009500011C060E00E944C0400914A01602F617058
:1009600082E70E944C04602F62708CE00E944C046D
:1009700010924401C23779F480914A018E7F8D2B09
:1009800080934A016D2F82E70E944C04DF91CF9142
:100990001F910F910895CC30A1F580914A018D7F70
:1009A00092E0D11101C090E0892B80934A016D2F14
:1009B0008CE0EACF11113FC060E082E70E944C0456
:1009C00060E08CE00E944C0481E080934401C0937D
:1009D000430183B5815093B58913FDCF2CC080911D
:1009E0004A01837021F0112389F260E025C01123B0
:1009F000E1F3CCCF8C3009F4AACFCFCFC81709F4DC
:100A0000A6CFDD2361F380914401882329F08091F2
:100A100043018C1709F4BACF80914A01837051F6D3
:100A2000112349F061E082E70E944C0481E0809349
:100A30004401C093430161E08C2FA6CF823709F0B7
:100A40009BCF85CFCF93603F09F450C098F56A3CA7
:100A500009F449C008F5613909F457C0643909F44B
:100A60004CC06835F9F44423E9F0C0914601C0FF59
:100A70004EC060E080E10E944C04CE7FC0934601EE
:100A8000C0914701CB7FC09347018DEE0E943B038D
:100A90008C2F0E943B0306C0693E69F128F46A3D31
:100AA00009F440C0CF9108956B3E69F16C3ED1F7D7
:100AB0006CE310C0653F29F138F4623F01F1C8F0E2
:100AC000643F81F768E106C06A3F71F130F4673F27
:100AD00049F760E20E948C04E5CF6C3F39F16D3F2D
:100AE00009F766E3F7CF6EE380E0F4CF66E081E0DC
:100AF000F1CF66E0F9CF6AE7EDCF6AE5EBCF68E0CA
:100B0000E9CF68E3E7CF68E2E5CF6AE0E3CF61E0F1
:100B100080E10E944C04C160C093460184E00E94C1
:100B20002A04C0CF60E8D6CF66E1D4CF6AE8882334
:100B3000D9F2442309F4B6CFC0914601C1FF08C0E1
:100B400060E080E00E944C04CD7FC0934601AACFB4
:100B500061E080E00E944C04C260F7CF90E080E04A
:100B600050E020918E0130E0082E02C03595279587
:100B70000A94E2F720FF32C0FC01EA57FE4F4081A1
:100B8000442391F14F3FC9F02091100130E0082E2D
:100B900002C0359527950A94E2F720FD25C0DC01B7
:100BA000A258BE4F2C912F5F2C93342F3F773217D2
:100BB00020F447FF19C02FEF208342B321E030E03B
:100BC000082E01C0220F0A94EAF7342F322B32BBD1
:100BD00030911001232B2093100151E001968830B1
:100BE000910509F0BECF08955111E7CF42B321E03E
:100BF00030E0082E01C0220F0A94EAF72095342F26
:100C0000322332BB30911001232320931001E6CF11
:100C100090914101981751F020912B0130912C01B6
:100C200030932A0120932901809341010895EF9286
:100C3000FF920F931F93CF93DF938C01C62F7901FF
:100C4000E62FE770E40FF52FF11DD49167FF22C066
:100C5000D03179F00E947402C82F893058F0D095B5
:100C6000D801EC91ED23EC93CDB7DEB7E6E00C9420
:100C7000A20EC8E08FEF0E940806EC2FF0E0EE0F06
:100C8000FF1FEE0DFF1D84913196649140E00E949C
:100C90008003E5CFFC0180818D2B8083D031A9F0CA
:100CA000C8010E9474028930F8F6E82FF0E0EE0FD8
:100CB000FF1FEE0DFF1D84913196649141E00E946B
:100CC00080038C2F0E940806CFCF88E0EECF1F93C1
:100CD000CF93DF93D82FC82FCF77C83508F044C003
:100CE000EC2FF0E0E85AFC4F1491103C98F40E946D
:100CF0005603D7FF03C080EF0E943B03812F0E9461
:100D00003B03D7FD03C08C2F0E940806DF91CF91D3
:100D10001F9108951F3FA9F380916A011F73612FEE
:100D200070E099E1899F600D711D1124660F771F96
:100D300080916B018370E1E0F0E011F4F0E0E0E01D
:100D40006E0F7F1F660F771FFB01E057FD4F8491E9
:100D50006F567D4FFB0164914D2F4095441F4427F2
:100D6000441F0E948003CDCF88EA8C0F853050F459
:100D70002CE532E040E852E06D2F89E691E00E94D8
:100D80001706C4CF80E98C0F883090F3C857C8305D
:100D900008F0BCCF2EE632E048E852E06D2F88E63E
:100DA00091E0EDCFE0914001EF5FEF70E093400103
:100DB000F0E0E15DFE4F80830895B0E0A0E0E3EE57
:100DC000F6E00C94850E082F7B01142FFB01C081E7
:100DD000D82FD095DC23D42ED1110BC0C095C023C1
:100DE000C11110C0F7010083CDB7DEB7E7E00C9466
:100DF000A10ED0FF04C08D2D80680E94D206D6952A
:100E0000D394EACFC0FF03C0812F0E94D206C695BB
:100E10001F5FE6CF1F93CF93DF93EC01162FE1996D
:100E2000FECFCE010E945F0E811711F0E199FECF37
:100E3000612FCE010E94670EDF91CF911F9108951F
:100E4000982F462F80914A01292F2F77213139F48D
:100E5000282F2B7F34E0611109C030E007C0243116
:100E600041F4282F277F38E06623B9F3232B209302
:100E70004A013091490120914A01522F5C70311191
:100E80004CC15C3009F068C0913F69F4442309F417
:100E900063C08D9A959889E08A95F1F78D9882B311
:100EA0008F6D82BB0895963609F056C0411148C136
:100EB00031110FC08AE080938D01109285010E944C
:100EC000780481E090914901911180E0809349017B
:100ED00008958AE880938D01109285010E9478041C
:100EE0006091480190E080E00E940A07609147010C
:100EF000627081E090E00E940A0760914601627092
:100F000082E090E00E940A07DCCF9535E9F0973740
:100F100009F45CC0963209F013C182E08093480165
:100F200083E003C01092480181E080938D0110920C
:100F30008501089581E08093480182E0F6CF83E047
:100F40008093480184E0F1CF81E0909145019111B7
:100F500080E08093450108953091470131FD2FC015
:100F6000E7E9E90FE53108F02AC0F0E0E654F84F70
:100F70000C94740ECF07DF07CF07CF07DF07DF071B
:100F8000DF07CF07CF07CF07CF07CF07CF07DF0791
:100F9000DF07DF07DF07CF07DF07DF07CF0790682F
:100FA0008370943808F03AC0E92FF0E0E852FE4F21
:100FB0006491362F603C68F40E948C040895992354
:100FC00009F4BEC04111ECCF973751F70E943804A5
:100FD00008956E3F00F530914801A62FA05CBB0B31
:100FE000FD01BDE23B9FE00DF11D1124EE0FFF1F3F
:100FF000237061E070E011F470E060E0E60FF71F2D
:10100000E059FF4FE4913E2FEE3F28F46E2F6E7FA4
:101010008E2F8170D1CF3E3F09F092C020914801C0
:10102000213009F44FC038F0223009F44FC023308A
:1010300009F46FC008959C3E09F467C0B8F49A3C67
:1010400081F158F49139D1F16AE5943909F4B4CFBA
:10105000963709F075C06AE7AFCF993EE1F39B3E42
:1010600059F19A3D09F06CC066E2A6CF943F11F1A8
:1010700050F4913FC9F0923FC9F0903F09F060C031
:1010800066E081E099CF973F09F441C018F4953F9D
:1010900079F008959A3FA1F066E39D3F09F48CCF63
:1010A00008956EE380E088CF66E0FCCF66E3FACF78
:1010B00066E3E7CF66E1F6CF66E1E3CF68E67CCF93
:1010C00066E17ACF692F0E9422050895903FC9F00A
:1010D00058F49A3D49F218F49A3C19F308959B3E4E
:1010E00059F39C3E91F00895943F21F328F4913FE9
:1010F00051F0923FD9F20895953FD1F29D3F39F0DA
:1011000008956EE0BECF6CE1CDCF6CE355CF60E2C9
:1011100053CF692F0E94220508955C3019F496364A
:1011200009F4C4CE442361F0953209F408CF08F0E5
:10113000ECCE963109F4F6CE9E3109F4FBCE08953B
:1011400008951F920F920FB60F9211248F939F93C1
:10115000EF93FF9390917B0180917A019817B1F002
:10116000E0917A01F0E0EE58FE4F80818CB98091D9
:101170007A018F5F877080937A01FF91EF919F9141
:101180008F910F900FBE0F901F9018955598F5CF27
:101190001F920F920FB60F9211242F933F934F93EC
:1011A0005F936F937F938F939F93AF93BF93EF93CF
:1011B000FF9380916401813099F0823049F1FF9171
:1011C000EF91BF91AF919F918F917F916F915F91BF
:1011D0004F913F912F910F900FBE0F901F90189538
:1011E0008BB78F778BBF80916301823038F0853168
:1011F00031F7829B06C00E940304E1CF0E942004C5
:10120000DECF84E20E9418038AE080936301D7CF87
:10121000E0916301E73198F6F0E0EF5EF64F0C9451
:10122000740E2809DF08DF085009DF08DF085B09B2
:10123000DF085F09FB08DF08DF08DF083509DF0882
:101240004109DF084609DF08DF08DF08DF08280951
:101250008DE08093630184E60E94180310924D0193
:1012600010924E0110924C01AACF84E60E941803FE
:101270000E94C20280914E01883009F0A0CF8FE019
:10128000C4CF84E60E94180381E1BFCF0E941403FB
:101290000E94050389E0809363010E9413048FCFAD
:1012A00080914E01883021F40E94B80286E0ADCFD3
:1012B0000E94D90284CF929A8A9888E0A6CF829918
:1012C0007ECF809161018F5F87708093610186E19D
:1012D000809363010E94E20372CF1F920F920FB6B8
:1012E0000F9211242F933F934F935F936F937F93AC
:1012F0008F939F93AF93BF93EF93FF93809164017C
:101300008130A1F0823009F4D3C0FF91EF91BF91F9
:10131000AF919F918F917F916F915F914F913F918D
:101320002F910F900FBE0F901F901895E0916301C1
:10133000E150E33108F0B9C0F0E0EF55F64F0C94FE
:10134000740EB409BA09C609CA09D609DA09E2094C
:10135000E609430AF7090C0A120A180A550A220A72
:10136000260A550A360A320A8B9A939882E08093AD
:101370006301CBCF0E94F502939A8B98839B03C0A5
:101380000E94D902C2CF0E942004BFCF8B9A9398AB
:1013900084E0EDCF939A8B98839BF5CF80914E019B
:1013A000883071F70E94B80285E0E1CF8B9A93985C
:1013B00086E0DDCF939A8B98839BE5CF929A8A98AB
:1013C00087E0D5CF8B9A939888E0D1CF8091610147
:1013D0008F5F877080936101939A8B98839BD3CFA3
:1013E000829B61C08BE380934B0189E0C0CF8B9AD5
:1013F000939810924D0110924E0110924C01829BD5
:1014000009C0939A8B98109263010E9414030E9462
:10141000E2037BCF8BE0ABCF939A8B98839BB3CFC8
:101420008CE0A5CF8B9A93980E94C2028DE09FCF4B
:10143000939A8B98839BA7CF80914E01883081F738
:101440008FE095CF8B9A939880E191CF939A8B9868
:10145000839B99CF829BF4CF83E1809363018A9A27
:10146000929853CF8B9A939882E181CF939A8B98DD
:10147000929A8A9881E080934B0189E0809363017E
:101480000E94050342CF80914B01815080934B0114
:1014900080914B01811139CF839B75CF829B03C013
:1014A0000E94030432CF8AE062CF0E9414032DCF42
:1014B0000E941403809163018D3091F370F48130A8
:1014C00009F023CF8A9A9298939A8B9883990BC0AC
:1014D000929A8A980E94E203A9CF8F3009F3813152
:1014E00009F013CFDDCF0E94E20383E08093630114
:1014F0000E94F5020ACF86E080BD10BC87E089B962
:1015000088E18AB910927A0110927B0180E091E023
:1015100090939201809391010E94F701959A969879
:101520008E9A8FEF87BB0E940202E199FECF90E076
:1015300080E00E945F0E837080934801E199FECFA6
:1015400081E090E00E945F0E80934701E199FECF19
:1015500082E090E00E945F0E8270809346010E94BC
:10156000780480EF82BD8FE087BD89B7806189BF35
:10157000849B9BC082E00E94F00388E40E941002DA
:101580007894809148018F5F806880938D011092DC
:101590008501C0E001C0C1E09091580180915701E0
:1015A0009817D1F30E949B02D82F8A3AB1F40E9477
:1015B000780410924A0110924901109244018DEE74
:1015C0000E943B03809147010E943B0361E08D2F05
:1015D0000E942007DECFC3E0DFCFCB30E8F6EC2F50
:1015E000F0E0EB50F54F0C94740E000B1A0B180B37
:1015F000230B280B2D0B320B370B3C0B410B460BEF
:101600008E3E09F4C9CF40F4803E09F4C4CF813E38
:1016100069F08111DBCFC0CF8A3F09F4BDCF8F3F86
:1016200009F4BACF803F91F6C2E0B6CFC4E0B4CFA0
:1016300060E0CDCF803F79F261E0823109F4A9CF3B
:101640008D2F8068C5CF823109F4A3CF60E0F8CF39
:10165000843109F09ECFC5E09FCF873709F099CF3D
:10166000C6E09ACF813E09F094CFC7E095CF803F86
:1016700009F08FCFC8E090CF843109F08ACFC9E05C
:101680008BCF803F09F085CFCAE086CF873709F03E
:1016900080CF61E087EF0E94200783B5815093B52A
:1016A0008913FDCF60E087EF93CF81E00E94F003C4
:1016B00084E40E94100282E0809328018FEF8093DF
:1016C000410124EF31E030932C0120932B01209134
:1016D0002B0130912C0130932A012093290120E421
:1016E00030E030932E0120932D0185BB88BB8BBB4E
:1016F0000E9402020E94F701E199FECF88E090E08B
:101700000E945F0E817080936A018CE182BD13BCE0
:101710008EE087BD89B7806189BF789480916A0126
:101720008F5F806880938D011092850110E0D0E07A
:101730009091580180915701981340C090914001B9
:1017400080913F01981709F40DC19091400180915B
:101750003F019817D1F3E0913F01EF5FEF70E09305
:101760003F01F0E0E15DFE4FC081112319F08C2FA5
:101770000E9430020C2F0F7780916B010C3009F022
:10178000C0C08E7F9C2F9095991F9927991F892BF8
:1017900080936B01DD2309F41DC1CF3009F42AC108
:1017A000C23309F42CC1C73009F0DCC010926A01C1
:1017B00081E080938D0110928501D4C00E949B022C
:1017C0008D3E09F441C0833F09F057C08AEF0E9463
:1017D0003B030E949B02282F30E0A90195E055951C
:1017E00047959A95E1F7437055274F5F5F4F9AEF02
:1017F000949FB001959F700D1124660F771F709311
:101800002C0160932B0140912B0150912C0150939E
:101810002A0140932901877090E0089653E035959E
:1018200027955A95E1F72370332702C0880F991F37
:101830002A95E2F763E0880F991F6A95E1F7909384
:101840002E0180932D0174CF8AEF0E943B030E94EA
:101850009B02C82F8770809342018AEF0E943B034E
:10186000D11166CFC2FF05C010928D011092850183
:101870005FCF8FEF80938D01F9CF8D5E833110F5AF
:10188000E82FF0E0EA5BF34F0C94740E7B0C640CD1
:10189000620C660C620C730C620C600C600C620CC7
:1018A000620C620C620C980B620C620C620C980B5E
:1018B000590C8AEF0E943B038AEA0E943B0338CF0F
:1018C0000E94AC028AEFF9CF8EEEF7CF8AEF0E942A
:1018D0003B030E949B02811103C080910E01EDCF5A
:1018E00080930E0125CF8AEF0E943B038BEA0E9472
:1018F0003B0383E8E2CF8AEF0E943B030E949B02F6
:10190000E1CF033331F48D7F92E0C7FF40CF90E009
:101910003ECF053029F48B7F94E0C7FF38CFF7CF57
:10192000023029F4877F98E0C7FF31CFF0CF8C7069
:101930008C3009F02FCFCF3B09F02CCFD1113AC01A
:1019400082E80E94670685E80E9467068FEB0E9486
:1019500067068FEF0E9408068AE080938D0110923F
:101960008501D1E09091710180917001981709F47F
:10197000DFCE90917101809170019817D1F3809121
:1019800070018F5F837080937001E0917001F0E0CF
:10199000E459FE4FC081112319F08C2F0E943002B0
:1019A000D111C6CEC23009F440C060F5C111C0CE1D
:1019B00088E583CF8091420182FF1AC080E08A606F
:1019C00080938D011092850160916A0188E090E01A
:1019D0000E940A078C2F0E946706C7FF07C08091EC
:1019E0004101081303C08FEF0E940806D0E0BACF70
:1019F00080E8E5CF81E080936A0183E0DACE81E080
:101A00001827D7CEC03869F0C23809F091CE80913E
:101A10006A01813009F08CCE80EE0E943B0380EF9A
:101A200009C080EF0E943B03C3CF80916A018130DF
:101A300029F480EE0E943B038DE73FCF81EE0E94A8
:101A40003B0384E10E943B0387E70E943B0381EE56
:101A50000E943B0380EF0E943B0384E10E943B0312
:101A600080EF0E943B0387E728CF1F920F920FB6AB
:101A70000F9211241F932F933F934F935F936F9374
:101A80007F938F939F93AF93BF93CF93DF93EF9306
:101A9000FF93849B20C0809111018F5F8A30B1F049
:101AA00080931101FF91EF91DF91CF91BF91AF91A1
:101AB0009F918F917F916F915F914F913F912F9166
:101AC0001F910F900FBE0F901F901895109211014B
:101AD0000E94AE05E7CF80912801813009F4C0C093
:101AE000833009F4CFC0809141018F3FD1F0209124
:101AF000290130912A012150310930932A01209384
:101B000029012091290130912A01232B51F42091A0
:101B10002D0130912E0130932A01209329010E943A
:101B2000D20680912501C091240193B39F3F89F48F
:101B300099B39F3F71F46C2F70E06C5E7E4FFB0198
:101B40009081891731F04C2F440F440F440F0E94AD
:101B5000DD06CF5FCF70C093240181E090E002C02A
:101B6000880F991FCA95E2F7292F332784BB27BB1B
:101B7000809585BB209528BB81E08093280115B115
:101B800080917D011823C0917C011C1709F45AC073
:101B9000D12FD095DC23C095C12341F1C0FF03C0F4
:101BA00080E80E946302C1FF03C081E80E946302D3
:101BB000C2FF03C082E80E946302C3FF03C083E840
:101BC0000E946302C4FF03C084E80E946302C5FF51
:101BD00003C085E80E946302C6FF03C086E80E9436
:101BE0006302C7FF03C087E80E946302DD2341F15F
:101BF000D0FF03C080E00E946302D1FF03C081E0F8
:101C00000E946302D2FF03C082E00E946302D3FFFE
:101C100003C083E00E946302D4FF03C084E00E94FB
:101C20006302D5FF03C085E00E946302D6FF03C0B4
:101C300086E00E946302D7FF03C087E00E94630230
:101C400010937C01809126019091270101968635A1
:101C5000F1E09F0779F1909327018093260122CF2D
:101C600089B380958093250182E08093280114BA7E
:101C700017BA8FEF85BB88BB8091240181117FCF7C
:101C800083E07BCF83B3809590911301891729F06E
:101C900048E763E171E00E94DD0689B38095909189
:101CA0001201891729F040E762E171E00E94DD0628
:101CB00082E063CF109227011092260109CFE199AB
:101CC000FECF9FBB8EBBE09A99278DB30895262F38
:101CD000E199FECF9FBB8EBB2DBB0FB6F894E29A65
:101CE000E19A0FBE01960895EE0FFF1F0590F49143
:101CF000E02D09942F923F924F925F926F927F92C4
:101D00008F929F92AF92BF92CF92DF92EF92FF920B
:101D10000F931F93CF93DF93CDB7DEB7CA1BDB0BB7
:101D20000FB6F894DEBF0FBECDBF09942A8839885C
:101D300048885F846E847D848C849B84AA84B98463
:101D4000C884DF80EE80FD800C811B81AA81B9816F
:101D5000CE0FD11D0FB6F894DEBF0FBECDBFED0183
:061D60000895F894FFCF86
:101D66000000000200000000220200000000020045
:00000001FF
