:020000040000FA
:0400000033EF0DF0DD
:0800080062EF00F000000000AF
:100010000000000000000000056ED8CF06F0E0CF21
:1000200007F00001E9CF0DF0EACF08F0E1CF09F0C9
:10003000E2CF0AF0D9CF0BF0DACF0CF0F3CF14F007
:10004000F4CF15F0FACF16F000C00FF001C010F099
:1000500002C011F003C012F004C013F09DA034EFF1
:1000600000F09EB0A3EF03F09DA43AEF00F09EB421
:10007000E0EF03F0A0A040EF00F0A1B0FEEF03F02E
:100080000FC000F010C001F011C002F012C003F068
:1000900013C004F00DC0E9FF08C0EAFF09C0E1FF8A
:1000A0000AC0E2FF0BC0D9FF0CC0DAFF14C0F3FF97
:1000B00015C0F4FF16C0FAFF055007C0E0FF06C0E8
:1000C000D8FF1000186ED8CF19F0E0CF1AF0000159
:1000D000E9CF20F0EACF1BF0E1CF1CF0E2CF1DF01A
:1000E000D9CF1EF0DACF1FF0F3CF27F0F4CF28F0EE
:1000F000FACF29F000C022F001C023F002C024F0A2
:1001000003C025F004C026F0F2A88AEF00F0F2B296
:1001100029EF03F0F0A690EF00F0F0B066EF03F0E7
:1001200022C000F023C001F024C002F025C003F07B
:1001300026C004F020C0E9FF1BC0EAFF1CC0E1FF9D
:100140001DC0E2FF1EC0D9FF1FC0DAFF27C0F3FFAA
:1001500028C0F4FF29C0FAFF18501AC0E0FF19C0E8
:10016000D8FF1000F2CF0EF0F29CF29EF76A840FD7
:10017000F66E010EF7220900F5500EBCF28C0EBE91
:10018000F28E120000010203040508090A0B0C0D8F
:10019000F2CF0EF0F29CF29EF76AB00FF66E010EEF
:1001A000F7220900F5500EBCF28C0EBEF28E120042
:1001B00000000046454484E80000838685007900FD
:1001C00000004F007A7E780000004C4D4A49CA007A
:1001D000005457524E4B4800007C5F55565150001A
:1001E00000675C5D5A59CB00000064625ECCCD00B4
:1001F000006F656166CFCE00006C776AC9696B00DD
:100200000000D000ADC80000E17441B200700000F1
:10021000000000000000400000000000000000009E
:100220000000000000007FE2F868006B7100E3004E
:10023000000000430000000000000000000000007B
:10024000000000007A000000000000000000007DB7
:10025000000000000000007D000000000000000021
:10026000000000000000000000000000000000008E
:100270000000000000000000000077000000000007
:1002800000000000D8000000000041000000000055
:100290000000000000000000000000827300000069
:1002A00080F04700428700000000000000000000CE
:1002B000F2CF0EF0F29CF29EF76AD00FF66E020EAD
:1002C000F7220900F5500EBCF28C0EBEF28E120021
:1002D00035323B13181B20235800F2CF0EF0F29C4E
:1002E000F29EF76AFA0FF66E020EF7220900F55039
:1002F0000EBCF28C0EBEF28E1200282D2E3653311B
:100300005B607B00F2CF0EF0F29CF29EF76A240F46
:10031000F66E030EF7220900F5500EBCF28C0EBEED
:10032000F28E120020524553544F52452000F2CF16
:100330000EF0F29CF29EF76A4E0FF66E030EF72255
:100340000900F5500EBCF28C0EBEF28E12004E6FFC
:100350007468696E6720646566696E656420666F9F
:10036000722073756263617465676F7279202564AA
:100370002000F2CF0EF0F29CF29EF76A920FF66E1A
:10038000030EF7220900F5500EBCF28C0EBEF28E61
:10039000120059204F766572666C6F772000F2CF9D
:1003A0000EF0F29CF29EF76ABE0FF66E030EF72275
:1003B0000900F5500EBCF28C0EBEF28E12005820D1
:1003C0004F766572666C6F772000F2CF0EF0F29C6C
:1003D000F29EF76AEA0FF66E030EF7220900F55057
:1003E0000EBCF28C0EBEF28E12000A0D0000F2CF8F
:1003F0000EF0F29CF29EF76A0E0FF66E040EF722D4
:100400000900F5500EBCF28C0EBEF28E1200417443
:1004100074656D7074206B6579626F6172642072AF
:1004200065696E6974202873656E64696E6720461D
:1004300046290A0D0000F2CF0EF0F29CF29EF76AF8
:10044000560FF66E040EF7220900F5500EBCF28C22
:100450000EBEF28E12004B6579626F61726420737A
:10046000656C662D746573742070617373656420A8
:10047000284141292073656E64696E672072656149
:100480006420494420636F6D6D616E64202846329C
:100490002900F2CF0EF0F29CF29EF76AB20FF66ED0
:1004A000040EF7220900F5500EBCF28C0EBEF28E3F
:1004B0001200446576696365206973206E6F74204D
:1004C00061206B6579626F6172642E20496E697478
:1004D00069616C697A6174696F6E2061626F7274B0
:1004E00065642E200000F2CF0EF0F29CF29EF76AB7
:1004F000060FF66E050EF7220900F5500EBCF28CC1
:100500000EBEF28E1200417474656D7074206D6FB2
:10051000757365207265696E6974202873656E64F1
:10052000696E67204646290A0D00F2CF0EF0F29C54
:10053000F29EF76A4A0FF66E050EF7220900F55093
:100540000EBCF28C0EBEF28E12004D6F75736520DC
:1005500073656C662D746573742070617373656464
:1005600020284141292073656E64696E6720726599
:10057000616420494420636F6D6D616E642028467C
:1005800032290000F2CF0EF0F29CF29EF76AA40F1F
:10059000F66E050EF7220900F5500EBCF28C0EBE69
:1005A000F28E1200446576696365206973206E6F70
:1005B000742061206D6F7573652E20496E697469B2
:1005C000616C697A6174696F6E2061626F727465C3
:1005D000642E2000F2CF0EF0F29CF29EF76AF40F28
:1005E000F66E050EF7220900F5500EBCF28C0EBE19
:1005F000F28E120044657669636520494420697370
:1006000020303020286D6F757365292E205374615A
:100610007274696E67207365747570207365717587
:10062000656E63652E200000F2CF0EF0F29CF29E04
:10063000F76A480FF66E060EF7220900F5500EBC59
:10064000F28C0EBEF28E1200537461727475700AD1
:100650000D00619081B46180D650D7CF03F05D6EFC
:1006600003C05EF05B505D5CA46F5C505E58A56F8C
:10067000A55303E1A4511408D8A05F6A5EC05CF0E2
:100680005DC05BF05F52D8B4606AD890603261B0F0
:10069000608E5F2A5F50090812E12B0E5324E96E29
:1006A000000E5420EA6E60C0EFFF532AD8B4542ADB
:1006B0005350140804E1545202E1546A536A5F50E3
:1006C0000B08D8B45F6AF29290EF00F0619281B6A5
:1006D0006182D650D7CF03F0646E03C065F06250DC
:1006E000645CA46F63506558A56FA55303E1A451E2
:1006F0001408D8A0666A65C063F064C062F06652F0
:10070000D8B4676AD890673261B2678E662A66503D
:10071000090812E13F0E5724E96E000E5820EA6ED8
:1007200067C0EFFF572AD8B4582A5750140804E17D
:10073000585202E1586A576A66500B08D8B4666A84
:10074000F09090EF00F061A802D0619810D09494DE
:100750008B9469C0BFFF68C0BEFFB70EB1169494FA
:100760008B94080EBD6E6194702AD8B4712A61AA68
:1007700002D0619A18D094928B926BC0BCFF6AC071
:10078000BBFFB70EB1169482080EBA6EB76AB66A8E
:10079000CAA403D09E929EA2FED794928B92619699
:1007A000722AD8B4732A61AC08D06DC069F06CC0ED
:1007B00068F06FC06BF06EC06AF09E9040EF00F082
:1007C00061A410D094948B946850BE266950BF22C7
:1007D000B70EB11694948B94080EBD6E9E946194DE
:1007E00061880AD09E94B70EB1169484BD6A040E37
:1007F000BD6E00009484618440EF00F061A618D0C3
:1008000094928B926A50BB266B50BC22B70EB116E5
:100810009482080EBA6EB76AB66ACAA403D09E92D2
:100820009EA2FED794928B92A1906196618A17D076
:10083000100E006E002EFED70000A190B70EB1166C
:100840009482BA6A040EBA6EB76AB66ACAA403D0B2
:100850009E929EA2FED7948200009482618640EF11
:1008600000F08D908D928D9400000000000000003B
:1008700000008D84000000008D94000C0D0E6D6E44
:10088000700E6C6E0D0E6F6E700E6E6E6DC069F038
:100890006CC068F06FC06BF06EC06AF06198619ACE
:1008A000619C9D84A0809D80EAEF0DF0546A536A9C
:1008B000566A556A586A576A5A6A596AF19CF19A97
:1008C000F288F086ECEF0DF07B6AF0EF0DF07E6AB7
:1008D000F2EF0DF0F29CF29EF2BEFDD757C089F008
:1008E000C00EF21259C08AF08A51895D05E38A511F
:1008F000895D016E07D006D0140E8925D8808A55EF
:10090000016E00D0A3EF08F0020E9C5F0BE3EA6AD1
:100910009C0EE96EEF5006E0020E006E002EFED730
:10092000EF2EFAD7000CD650D7CF03F09E6F03C03E
:100930009FF09D51FC0F1BE2040FCBEF04F081A24E
:1009400003D0010E016E26D012D081B203D0010E69
:10095000016E20D00CD081A603D0010E016E1AD0FA
:1009600006D081B603D0010E016E14D000D0D6504F
:10097000D7CF03F0A06F03C0A1F09E51A05DA26F7E
:100980009F51A159A36FA35303E1A251C308D1E220
:10099000000E016E000CF2CF0EF0F29CF29EE824E5
:1009A000C10FF66E090EF76ED8B0F72A0A00F5509F
:1009B000FA6E0800F5500EBCF28C0EBEF28EF96E87
:1009C0003E094A0956096209996B97C098F09A81C5
:1009D0009B6B9B51070810E397A10AD0000E9AB1B8
:1009E000010E010A016EE8B002D09A9101D09A81FD
:1009F000D89097339B2BEDD79AB1998199839A839D
:100A0000F09693928A926E0E9C6F7EDF93829396FD
:100A10008A969B6B9B51090828E3000E9AB3010E3E
:100A20009C6F010E9D6F7FDF9C510114016EE8B039
:100A300002D09A9301D09A8398A102D0938602D0D3
:100A400093968A96D89099339833000E9AB3010EF4
:100A50009C6F9D6B68DF9C510114016EE8B002D061
:100A60009A9301D09A839B2BD5D7000E9AB3010E8F
:100A70009C6F030E9D6F57DF9C510114016EE8B00F
:100A800002D09A9301D09A83000E9AB3010E9C6F04
:100A9000010E9D6F48DF9C510114016EE8B002D039
:100AA0009A9301D09A83000E9AB3010E9C6F9D6BAE
:100AB0003ADF9C510114016EE8B002D09A9301D044
:100AC0009A83000E9AB3010E9C6F020E9D6F2BDF6E
:100AD0009C510114016EE8B002D09A9301D09A8320
:100AE000F090F086000E9AB3010E016E000C3F0EDE
:100AF0005924E96E000E5A20EA6EEFCF89F0592A88
:100B0000D8B45A2A5950140804E15A5202E15A6AD8
:100B1000596A89C001F0CDEF08F09D51016A9C5DD2
:100B200003E29CC000F00CD0006A080E9E6F9C3758
:100B300000369D51005CD8B0006E01369E2FF7D76D
:100B4000000C200E97A9300E986F96C000F096AF5B
:100B500007D0001E002A00C096F02D0E986F978FC8
:100B6000015096C09CF0640E9D6FD7DF00C096F0D8
:100B7000300E0124996F96C09CF00A0E9D6FCDDF58
:100B8000300E00249B6F300E01249A6F98C000F045
:100B900097A702D097AF979597B90BD097AF22D070
:100BA00097B520D000C099F097B31CD000C09AF040
:100BB00019D0300E995D16E100C099F0200E986FA3
:100BC00097A704D09795978397AF9793300E9A5D28
:100BD00009E100C09AF0200E996F97A7F7D7979375
:100BE00097AF979197A504D098519EA8FED7AD6E68
:100BF00097A304D099519EA8FED7AD6E97A104D0BB
:100C00009A519EA8FED7AD6E9B519EA8FED7AD6EA1
:100C1000000C8FBF10D00F0E006E8E3900160A0E1A
:100C2000005C03E2300E002602D08F5100260050F7
:100C30009EA8FED7AD6E0F0E8E170A0E8E5D02E2D5
:100C4000300E02D08F9F8F518E278E519EA8FED7D7
:100C5000AD6E000CD650D7CF03F08E6F03C08FF06F
:100C60008F51070F0109786E000C8F515E0801E269
:100C700058D08F51070B926F8F31916F9133913311
:100C80001F0E9117036A9151F2CF95F0F29CF29EDC
:100C9000B2EC00F095BDF28C95BFF28E936F92C0CE
:100CA00094F093358F6F8F378F37F80E8F179451DD
:100CB0008F13905302E02B0E01D02D0E956F5B0E1B
:100CC0009EA8FED7AD6E94C096F01F0E976F39DFC9
:100CD000200E9EA8FED7AD6E93C096F01F0E976FA4
:100CE00030DF200E9EA8FED7AD6E95519EA8FED790
:100CF000AD6E5D0E9EA8FED7AD6E200E9EA8FED7EF
:100D0000AD6E8CAE02D08F8F01D08F9F8FC08CFFC5
:100D1000905302E08D8001D08D9000008D82000004
:100D20008D92000CD650D7CF03F08E6F03C08FF09A
:100D30008F51080F0109746E86EF08F0EA6A960E6B
:100D4000E96EEF500FE00C0E016E006A002EFED728
:100D5000012EFBD7F70E006E002EFED7000000001C
:100D6000EF2EF1D7000C956B9153D8A49583925335
:100D7000D8A495859353D8A49581ED0E976F24DE62
:100D800001B002D0949101D09481020E966FD6DF0B
:100D9000000E94B1010E966F95C097F015DE965136
:100DA0000114016EE8B002D0949101D09481020E3A
:100DB000966FC4DF000E94B1010E016E86EF08F04D
:100DC000D650D7CF03F08E6F03C08FF08F51080F2E
:100DD0000109776E86EF08F0D650D7CF03F08E6FFB
:100DE00003C08FF08F51320F0109766E68EF08F063
:100DF0008B6B8951E00A15E0010A15E0110A15E034
:100E00005B0A15E0AB0A13E0AA0A11E0440A0FE0FE
:100E1000140A0DE0060A0BE0020A09E0010A07E0E5
:100E200007D07A826CD07A846AD07A8088D167D0F1
:100E30008951120803E1619E7AA0618E8951590897
:100E400003E179907AA079808951140805E17AB29A
:100E500003D079927AA079828951140805E17AA2A7
:100E600003D079947AA079848951770806E17AA42D
:100E700004D07A947AA07A8442D08951110805E18D
:100E80007AA203D079987AA079888951110805E16E
:100E90007AB203D079967AA0798689C08AF07AA24C
:100EA00002D0800E8A277AA402D0C00E8A278A51E7
:100EB000F2CF8EF0F29CF29EC8EC00F08EBDF28C68
:100EC0008EBFF28E8B6F5B0E9EA8FED7AD6E8AC072
:100ED0008EF0370E8F6F9DDE200E9EA8FED7AD6E72
:100EE0008BC08EF0370E8F6F94DE5D0E9EA8FED7FE
:100EF000AD6E200E9EA8FED7AD6E7A9200D08B51BB
:100F0000C00B8C6F8B513F0B8D6F7AB001D0A2DE7E
:100F10008C51400A09E0800A10E0400AD8B4F7D0AA
:100F2000800AD8B40AD109D1000E7AA0010E8E6FC2
:100F30008DC08FF0906F99DE01D18B51380B8C6F83
:100F40008B51070B8D6F8C51180A11E0100A1EE0AF
:100F5000180A1CE0300AD8B46FD0080AD8B4A8D058
:100F6000180AD8B4A9D0080AD8B4B3D0B8D07AA097
:100F700001D0CCD08E6B8E5182EC01F0000905E0DF
:100F80008E2B9EA8FED7AD6EF6D7CCD68C5110080E
:100F900002E1080E8D2761BE19D079B017D0036A1F
:100FA0008D51F2CF8EF0F29CF29E58EC01F08EBD86
:100FB000F28C8EBFF28E8D6F8DAD07D0000E7AA0B1
:100FC000010E906F340E8F6F50DE2CD0036A8D515E
:100FD000F2CF8EF0F29CF29E6DEC01F08EBDF28CA1
:100FE0008EBFF28E8D6F8DBD1DD07AB00DD061AEEB
:100FF00004D00F0E8F6F906B38DE79A004D0340EC2
:101000008F6F906B32DE0ED061AE05D00F0E8F6FFA
:10101000010E906F2ADE79A005D0340E8F6F010E7D
:10102000906F23DE8D9D000E7AA0010E8E6F8DC015
:101030008FF0906F1ADE6AD07AA001D067D08D2D24
:101040000AD0000E79BA010E010A016EE8B002D092
:10105000799A01D0798A8D5102080FE1000E79BC8E
:10106000010E010A016EE8B002D0799C01D0798CA2
:1010700082A802D08B9801D08B888D5103080AE199
:10108000000E79BE010E010A016EE8B002D0799E11
:1010900001D0798E000E79BC010E916F000E79BAE5
:1010A000010E926F000E79BE010E906F936F5BD6AA
:1010B0007AA001D02BD084D67AA001D027D079B2E3
:1010C00002D079A405D079B602D079A801D084D60F
:1010D0001DD07AA001D01AD031EC04F017D08E6B5D
:1010E0008E5197EC01F08E2B006E00509EA8FED71B
:1010F000AD6E200E8E5DF4E18CC096F01F0E976FE2
:1011000020DD200E9EA8FED7AD6E00D017D07AB09D
:1011100005D0340E8F6F010E906FA7DD000E7AA000
:10112000010E8E6F8DC08FF0906F9FDD7AA004D07E
:10113000340E8F6F906B99DD01D000D07A902EEF36
:1011400009F06AEF04F001C087F0875325E17B5274
:1011500001E095D0D650D7CF03F0856F03C086F05D
:101160007C50855D896F7D5086598A6F7C0801E3CC
:1011700086D086C07DF085C07CF0896B8951F7EC04
:1011800001F0000905E0892B9EA8FED7AD6EF6D7C9
:10119000FF0E976F19DC73D0AAD401C088F0280E17
:1011A0009EA8FED7AD6E7BC096F01F0E976FC9DC70
:1011B000200E9EA8FED7AD6E88C08EF0370E8F6FC2
:1011C00028DD290E9EA8FED7AD6E200E9EA8FED764
:1011D000AD6E7B5009E0010A1DE0030A22E0010A1E
:1011E00032E0070A38E03CD08851AA0803E0FF0E3D
:1011F0007B6E39D0896B89511BEC02F0000905E048
:10120000892B9EA8FED7AD6EF6D7F20E976FE4EC51
:1012100004F029D08851FA0801E125D0FF0E7B6E39
:1012200022D08851AB0801E11ED0896B895149EC6D
:1012300002F0000905E0892B9EA8FED7AD6EF6D717
:10124000FF0E7B6E10D08851830802E103DD0BD0C6
:10125000FF0E7B6E08D088C089F0CAD57B0603D00C
:10126000FF0E7B6E00D0896B8951E5EC01F000091F
:1012700005E0892B9EA8FED7AD6EF6D77B2AF4EF4A
:101280000DF0F29CF29EF2BEFDD753C089F0C00E65
:10129000F21255C08AF08A51895D05E38A51895D51
:1012A000016E07D006D0140E8925D8808A55016EAC
:1012B00000D0F1EF0BF0D650D7CF03F0906F03C002
:1012C00091F08F51FC0F1BE2040F93EF09F081A006
:1012D00003D0010E016E26D012D081B003D0010ED2
:1012E000016E20D00CD081A403D0010E016E1AD063
:1012F00006D081B403D0010E016E14D000D0D650B8
:10130000D7CF03F0926F03C093F09051925D946F2A
:1013100091519359956F955303E19451C308D1E2CC
:10132000000E016E000CF2CF0EF0F29CF29EE8244B
:10133000510FF66E130EF76ED8B0F72A0A00F5506B
:10134000FA6E0800F5500EBCF28C0EBEF28EF96EED
:10135000CE12DA12E612F2128B6B89C08AF08C81FF
:101360008D6B8D51070810E389A10AD0000E8CB156
:10137000010E010A016EE8B002D08C9101D08C817F
:10138000D89089338D2BEDD78CB18B818B838C8357
:10139000F29893908A906E0E9C6F84EC04F0938088
:1013A00093948A948D6B8D51090828E3000E8CB3B9
:1013B000010E8E6F010E8F6F7EDF8E510114016E54
:1013C000E8B002D08C9301D08C838AA102D09384A0
:1013D00002D093948A94D8908B338A33000E8CB3C6
:1013E000010E8E6F8F6B67DF8E510114016EE8B0B6
:1013F00002D08C9301D08C838D2BD5D7000E8CB36B
:10140000010E8E6F030E8F6F56DF8E510114016E29
:10141000E8B002D08C9301D08C83000E8CB3010E07
:101420008E6F010E8F6F47DF8E510114016EE8B091
:1014300002D08C9301D08C83000E8CB3010E8E6F82
:101440008F6B39DF8E510114016EE8B002D08C939E
:1014500001D08C83000E8CB3010E8E6F020E8F6F45
:101460002ADF8E510114016EE8B002D08C9301D0B6
:101470008C83F292F288000E8CB3010E016E000C88
:101480002B0E5524E96E000E5620EA6EEFCF89F040
:10149000552AD8B4562A5550140804E1565202E190
:1014A000566A556A89C001F01BEF0CF0D650D7CFB1
:1014B00003F0926F03C093F09351070F0109756E0B
:1014C000000C92519403F3CF01F0F4CF00F0950398
:1014D000F350002693519403F3500020026E000C49
:1014E000EACF9DF0E9CF9CF096AF08D09C8F9CA9E5
:1014F0009C2B951F961F952BD8B4962B9639F009E7
:10150000986F9827E20F996F320F9B6F96510F0BD0
:10151000992799279B27E90F9A6F9A279A27953938
:101520000F0B9A279B279A379B379B1F9B37955109
:101530000F0B9B279837070E976F0A0E9A079B276A
:10154000FDE399079A27FDE398079927FDE397079D
:101550009827FDE3EA6A970EE96E070E9C159C9D9D
:10156000E9069C1507E19CB9E92A9CB903D0200E35
:10157000006E1CD0E9269B0EE95CD8B49C8DEF5020
:10158000006E08E19CBD06D09CB914D09CB702D077
:10159000200E0BD09CAF06D02D0E006EED509C9D02
:1015A0009C9F04D09C879C99300E002600509EA8DA
:1015B000FED7AD6EEE509CADDED7000C8D9189B19B
:1015C0008D818D9589B38D858D9389B58D8389A9FD
:1015D00005D0FF0E8F6F8AC08EF003D08F6B8AC04C
:1015E0008EF089AB05D0FF0E916F8BC090F003D0C9
:1015F000916B8BC090F08FC093F08EC092F0956B82
:10160000090E946F5EDF02C003F001506C24016E7E
:101610006D50032201C06CF003C06DF091C093F0D7
:1016200090C092F0956B090E946F4BDF02C003F0EF
:1016300001506E24016E6F50032201C06EF003C092
:101640006FF06D50100809E2FF0A03E16C50940836
:1016500004E20C0E6D6EB20E6C6E6F50100809E253
:10166000FF0A03E16E50940804E20C0E6F6EB20E96
:101670006E6E6D500C0808E303E16C50B10804E392
:10168000110E6D6E940E6C6E6F500C0808E303E142
:101690006E50B10804E3110E6F6E940E6E6E618C85
:1016A0008DA103D0929A899A01D0928A8DA303D0FA
:1016B0009296899601D092868DA503D092928992B6
:1016C00001D09282F3DE000E8DB1010E926F000EFA
:1016D0008DB3010E936F000E8DB5010E946F5B0EEE
:1016E0009EA8FED7AD6E030EE96E8FC096F08EC039
:1016F00095F0F6DE200E9EA8FED7AD6E030EE96EC5
:1017000091C096F090C095F0EBDE5D0E9EA8FED7DE
:10171000AD6E200E9EA8FED7AD6E000EE96E6DC0B8
:1017200096F06CC095F0DCDE200E9EA8FED7AD6E64
:10173000000EE96E6FC096F06EC095F0D1DE200EFF
:101740009EA8FED7AD6E200E9EA8FED7AD6E92C0AD
:1017500096F01F0E976FA1EC05F0200E9EA8FED705
:10176000AD6E93C096F01F0E976FA1EC05F0200EA2
:101770009EA8FED7AD6E94C096F01F0E976FA1EC99
:1017800005F0200E9EA8FED7AD6E200E9EA8FED7B7
:10179000AD6E89AF0BD0926B9251B9EC01F000099C
:1017A00005E0922B9EA8FED7AD6EF6D789AD0BD083
:1017B000926B9251CFEC01F0000905E0922B9EA8AC
:1017C000FED7AD6EF6D7926B9251E5EC01F00009B1
:1017D00005E0922B9EA8FED7AD6EF6D7B0EF0CF0C9
:1017E00050D501C087F0875325E17E5201E0CFD06C
:1017F000D650D7CF03F0856F03C086F07F50855D4C
:10180000896F805186598A6F7C0801E3C0D086C0F9
:1018100080F085C07FF0896B895173EC02F000097C
:1018200005E0892B9EA8FED7AD6EF6D7FF0E896F17
:1018300093DDADD025D601C088F07EBE03D07E50AA
:1018400007081CE37B0E9EA8FED7AD6E7EC096F007
:101850001F0E976FA1EC05F0200E9EA8FED7AD6E6F
:1018600088C08EF0370E8F6F09EC06F07D0E9EA8B3
:10187000FED7AD6E200E9EA8FED7AD6E7E5015E051
:10188000010A28E0030A46E0010A48E0070A4AE0A4
:10189000010A4CE0030A4EE0010A50E00F0A4FE053
:1018A000010A50E0030A51E05ED08851AA0803E023
:1018B000FF0E7E6E5BD0896B895195EC02F00009BA
:1018C00005E0892B9EA8FED7AD6EF6D7F20E896F84
:1018D00043DD4CD088530EE0896B8951C2EC02F095
:1018E000000905E0892B9EA8FED7AD6EF6D7FF0E46
:1018F0007E6E3CD0896B8951EAEC02F0000905E06C
:10190000892B9EA8FED7AD6EF6D7D0DDE80E896F85
:1019100023DD2CD0030E896F1FDD28D0E60E896FE2
:101920001BDD24D0F30E896F17DD20D0280E896FC0
:1019300013DD1CD0F40E896F0FDD18D017D088C0CE
:1019400081F014D088C082F011D088C083F081C0AB
:1019500089F082C08AF083C08BF084C08CF02ED6D0
:10196000070E7E6E03D0FF0E7E6E00D07E2A7EBEF6
:1019700003D07E5007080BE3896B8951E5EC01F039
:10198000000905E0892B9EA8FED7AD6EF6D7F5EFCE
:101990000DF0050E886FD650D7CF03F08A6F03C0C5
:1019A0008BF08B51856F876B8851875DD8B059D08C
:1019B000036A8751740FE96E000E0320EA6EEF523E
:1019C00001E14DD0036A8751740FE96E000E0320C8
:1019D000EA6E8551EF5C866F86517F0802E2000E49
:1019E00001D0010E016EE8B002D0899101D0898149
:1019F000875109E0010A0EE0030A12E0010A17E02C
:101A0000070A1CE021D089A103D094908B9001D0CB
:101A100094801BD089A102D08A9A01D08A8A15D0DD
:101A200089A103D0949A8B8A01D0948A0ED089A17F
:101A300003D09290899001D0928007D089A102D0E2
:101A40008A9801D08A8801D000D089B108D0036A71
:101A50008751740FE96E000E0320EA6EEF6A872B40
:101A6000A3D7F6EF0DF0F86A9F90F08C9F94A290A8
:101A7000D08E0D8EEA6AE96AB886560EAF6E000EF9
:101A8000B06E260EAC6E900EAB6EC150C00B0F093F
:101A9000C16E070EB46E2B6A2C6A2D6A2E6A2F6AED
:101AA000306A316A326A336A346A356A366A376A4A
:101AB000386A396A3A6A3B6A3C6A3D6A3E6A3F6AFA
:101AC000406A416A426A436A446A456A466A476AAA
:101AD000486A496A4A6A4B6A4C6A4D6A4E6A4F6A5A
:101AE000506A516A526A536A546A556A566A576A0A
:101AF000586A596A5A6A5B6A5C6A5D6A5E6A5F6ABA
:101B0000606A6190626A636A646A656A666A676A43
:101B10006192706A716A726A736A746A756A766AC7
:101B2000776A786A619E79907992799479967998B2
:101B3000799A799C799E7A907A927A947C6A7D6A75
:101B40007F6A806B816B826B836B846BC150C00B2F
:101B50000F09C16EC2909698C69A000EC66EC76EE7
:101B6000D190870ED56E850ECD6E000ECA6E000E1A
:101B7000CB6EB150480BB16E070EB46E9250210E71
:101B8000006E002EFED7B450A19CB56AD26AD36A0B
:101B9000D350896A300E8A6E8B6A800E8C6E8D6A85
:101BA000FF0E926ECF0E936EE70E946E800E956EC2
:101BB000969096929694856B855114EC03F00009EB
:101BC00005E0852B9EA8FED7AD6EF6D731EC04F06C
:101BD0003EEF04F056EF04F0C00EF21264EF04F092
:101BE00067EF04F0A1EF08F0FBD5D3D6FBD70300D5
:021BF000FFD71D
:020000040030CA
:0E0000000006090E008700000FC00FE00F4041
:00000001FF
;PIC18F4520
